{
  "_format": "hh-sol-artifact-1",
  "contractName": "Incrementer",
  "sourceName": "contracts/Contract.sol",
  "abi": [
    {
      "inputs": [],
      "name": "getValue",
      "outputs": [
        {
          "internalType": "uint256",
          "name": "",
          "type": "uint256"
        }
      ],
      "stateMutability": "view",
      "type": "function"
    },
    {
      "inputs": [
        {
          "internalType": "uint256",
          "name": "_value",
          "type": "uint256"
        }
      ],
      "name": "increment",
      "outputs": [],
      "stateMutability": "nonpayable",
      "type": "function"
    },
    {
      "inputs": [],
      "name": "value",
      "outputs": [
        {
          "internalType": "uint256",
          "name": "",
          "type": "uint256"
        }
      ],
      "stateMutability": "view",
      "type": "function"
    }
  ],
  "bytecode": "0x608060405234801561001057600080fd5b5061020c806100206000396000f3fe608060405234801561001057600080fd5b50600436106100415760003560e01c806320965255146100465780633fa4f245146100645780637cf5dab014610082575b600080fd5b61004e61009e565b60405161005b9190610115565b60405180910390f35b61006c6100a7565b6040516100799190610115565b60405180910390f35b61009c600480360381019061009791906100dd565b6100ad565b005b60008054905090565b60005481565b806000808282546100be9190610130565b9250508190555050565b6000813590506100d7816101bf565b92915050565b6000602082840312156100ef57600080fd5b60006100fd848285016100c8565b91505092915050565b61010f81610186565b82525050565b600060208201905061012a6000830184610106565b92915050565b600061013b82610186565b915061014683610186565b9250827fffffffffffffffffffffffffffffffffffffffffffffffffffffffffffffffff0382111561017b5761017a610190565b5b828201905092915050565b6000819050919050565b7f4e487b7100000000000000000000000000000000000000000000000000000000600052601160045260246000fd5b6101c881610186565b81146101d357600080fd5b5056fea2646970667358221220cb18c7441300aba6f8e1e3c8ac91b69118c65e85e3c4e56e5db5ee6b11ba30d464736f6c63430008000033",
  "linkReferences": {},
  "deployedLinkReferences": {}
}